{
  "contractName": "Crowdsale",
  "abi": [
    {
      "inputs": [
        {
          "internalType": "contract ERC20",
          "name": "_token",
          "type": "address"
        },
        {
          "internalType": "contract KYCCheck",
          "name": "_KYCContract",
          "type": "address"
        },
        {
          "internalType": "address payable",
          "name": "_recipient",
          "type": "address"
        },
        {
          "internalType": "uint256",
          "name": "_rate",
          "type": "uint256"
        }
      ],
      "stateMutability": "nonpayable",
      "type": "constructor"
    },
    {
      "anonymous": false,
      "inputs": [
        {
          "indexed": true,
          "internalType": "address",
          "name": "previousOwner",
          "type": "address"
        },
        {
          "indexed": true,
          "internalType": "address",
          "name": "newOwner",
          "type": "address"
        }
      ],
      "name": "OwnershipTransferred",
      "type": "event"
    },
    {
      "anonymous": false,
      "inputs": [
        {
          "indexed": false,
          "internalType": "address",
          "name": "by",
          "type": "address"
        },
        {
          "indexed": true,
          "internalType": "uint256",
          "name": "when",
          "type": "uint256"
        }
      ],
      "name": "Start",
      "type": "event"
    },
    {
      "anonymous": false,
      "inputs": [
        {
          "indexed": false,
          "internalType": "address",
          "name": "by",
          "type": "address"
        },
        {
          "indexed": true,
          "internalType": "uint256",
          "name": "when",
          "type": "uint256"
        }
      ],
      "name": "Stop",
      "type": "event"
    },
    {
      "anonymous": false,
      "inputs": [
        {
          "indexed": false,
          "internalType": "address",
          "name": "who",
          "type": "address"
        },
        {
          "indexed": false,
          "internalType": "uint256",
          "name": "amount",
          "type": "uint256"
        }
      ],
      "name": "TokensPurchased",
      "type": "event"
    },
    {
      "inputs": [],
      "name": "isPaused",
      "outputs": [
        {
          "internalType": "bool",
          "name": "",
          "type": "bool"
        }
      ],
      "stateMutability": "view",
      "type": "function",
      "constant": true
    },
    {
      "inputs": [],
      "name": "owner",
      "outputs": [
        {
          "internalType": "address",
          "name": "",
          "type": "address"
        }
      ],
      "stateMutability": "view",
      "type": "function",
      "constant": true
    },
    {
      "inputs": [],
      "name": "pause",
      "outputs": [],
      "stateMutability": "nonpayable",
      "type": "function"
    },
    {
      "inputs": [],
      "name": "rate",
      "outputs": [
        {
          "internalType": "uint256",
          "name": "",
          "type": "uint256"
        }
      ],
      "stateMutability": "view",
      "type": "function",
      "constant": true
    },
    {
      "inputs": [],
      "name": "recipient",
      "outputs": [
        {
          "internalType": "address payable",
          "name": "",
          "type": "address"
        }
      ],
      "stateMutability": "view",
      "type": "function",
      "constant": true
    },
    {
      "inputs": [],
      "name": "renounceOwnership",
      "outputs": [],
      "stateMutability": "nonpayable",
      "type": "function"
    },
    {
      "inputs": [
        {
          "internalType": "address",
          "name": "newOwner",
          "type": "address"
        }
      ],
      "name": "transferOwnership",
      "outputs": [],
      "stateMutability": "nonpayable",
      "type": "function"
    },
    {
      "inputs": [],
      "name": "unpause",
      "outputs": [],
      "stateMutability": "nonpayable",
      "type": "function"
    },
    {
      "inputs": [],
      "name": "buyTokens",
      "outputs": [],
      "stateMutability": "payable",
      "type": "function",
      "payable": true
    },
    {
      "inputs": [],
      "name": "getLeftAllowance",
      "outputs": [
        {
          "internalType": "uint256",
          "name": "",
          "type": "uint256"
        }
      ],
      "stateMutability": "view",
      "type": "function",
      "constant": true
    }
  ],
  "bytecode": "0x6101006040523480156200001257600080fd5b5060405162001d8138038062001d81833981810160405281019062000038919062000483565b620000586200004c6200024b60201b60201c565b6200025360201b60201c565b60008473ffffffffffffffffffffffffffffffffffffffff166370a08231620000866200031760201b60201c565b6040518263ffffffff1660e01b8152600401620000a4919062000506565b602060405180830381865afa158015620000c2573d6000803e3d6000fd5b505050506040513d601f19601f82011682018060405250810190620000e8919062000523565b116200012b576040517f08c379a00000000000000000000000000000000000000000000000000000000081526004016200012290620005dc565b60405180910390fd5b600073ffffffffffffffffffffffffffffffffffffffff168273ffffffffffffffffffffffffffffffffffffffff16036200019d576040517f08c379a0000000000000000000000000000000000000000000000000000000008152600401620001949062000674565b60405180910390fd5b8373ffffffffffffffffffffffffffffffffffffffff1660808173ffffffffffffffffffffffffffffffffffffffff16815250508273ffffffffffffffffffffffffffffffffffffffff1660a08173ffffffffffffffffffffffffffffffffffffffff16815250508173ffffffffffffffffffffffffffffffffffffffff1660c08173ffffffffffffffffffffffffffffffffffffffff16815250508060e081815250505050505062000696565b600033905090565b60008060009054906101000a900473ffffffffffffffffffffffffffffffffffffffff169050816000806101000a81548173ffffffffffffffffffffffffffffffffffffffff021916908373ffffffffffffffffffffffffffffffffffffffff1602179055508173ffffffffffffffffffffffffffffffffffffffff168173ffffffffffffffffffffffffffffffffffffffff167f8be0079c531659141344cd1fd0a4f28419497f9722a3daafe3b4186f6b6457e060405160405180910390a35050565b60008060009054906101000a900473ffffffffffffffffffffffffffffffffffffffff16905090565b600080fd5b600073ffffffffffffffffffffffffffffffffffffffff82169050919050565b6000620003728262000345565b9050919050565b6000620003868262000365565b9050919050565b620003988162000379565b8114620003a457600080fd5b50565b600081519050620003b8816200038d565b92915050565b6000620003cb8262000365565b9050919050565b620003dd81620003be565b8114620003e957600080fd5b50565b600081519050620003fd81620003d2565b92915050565b6000620004108262000345565b9050919050565b620004228162000403565b81146200042e57600080fd5b50565b600081519050620004428162000417565b92915050565b6000819050919050565b6200045d8162000448565b81146200046957600080fd5b50565b6000815190506200047d8162000452565b92915050565b60008060008060808587031215620004a0576200049f62000340565b5b6000620004b087828801620003a7565b9450506020620004c387828801620003ec565b9350506040620004d68782880162000431565b9250506060620004e9878288016200046c565b91505092959194509250565b620005008162000365565b82525050565b60006020820190506200051d6000830184620004f5565b92915050565b6000602082840312156200053c576200053b62000340565b5b60006200054c848285016200046c565b91505092915050565b600082825260208201905092915050565b7f43726f776473616c653a204465706c6f79657220686173206e6f20746f6b656e60008201527f7320746f2073656c6c2e00000000000000000000000000000000000000000000602082015250565b6000620005c4602a8362000555565b9150620005d18262000566565b604082019050919050565b60006020820190508181036000830152620005f781620005b5565b9050919050565b7f43726f776473616c653a2052656365697069656e742063616e6e6f742062652060008201527f6164647265737320302e00000000000000000000000000000000000000000000602082015250565b60006200065c602a8362000555565b91506200066982620005fe565b604082019050919050565b600060208201905081810360008301526200068f816200064d565b9050919050565b60805160a05160c05160e051611695620006ec600039600081816101e7015261070f015260008181610331015261087e01526000610599015260008181610674015281816107d40152610a7e01526116956000f3fe6080604052600436106100915760003560e01c80638da5cb5b116100595780638da5cb5b14610131578063b187bd261461015c578063d0febe4c14610187578063f2fde38b14610191578063f4fa9813146101ba57610091565b80632c4e722e146100965780633f4ba83a146100c157806366d003ac146100d8578063715018a6146101035780638456cb591461011a575b600080fd5b3480156100a257600080fd5b506100ab6101e5565b6040516100b89190610c09565b60405180910390f35b3480156100cd57600080fd5b506100d6610209565b005b3480156100e457600080fd5b506100ed61032f565b6040516100fa9190610c65565b60405180910390f35b34801561010f57600080fd5b50610118610353565b005b34801561012657600080fd5b5061012f6103db565b005b34801561013d57600080fd5b50610146610502565b6040516101539190610ca1565b60405180910390f35b34801561016857600080fd5b5061017161052b565b60405161017e9190610cd7565b60405180910390f35b61018f610541565b005b34801561019d57600080fd5b506101b860048036038101906101b39190610d23565b610983565b005b3480156101c657600080fd5b506101cf610a7a565b6040516101dc9190610c09565b60405180910390f35b7f000000000000000000000000000000000000000000000000000000000000000081565b610211610b24565b73ffffffffffffffffffffffffffffffffffffffff1661022f610502565b73ffffffffffffffffffffffffffffffffffffffff1614610285576040517f08c379a000000000000000000000000000000000000000000000000000000000815260040161027c90610dad565b60405180910390fd5b60011515600060149054906101000a900460ff161515146102db576040517f08c379a00000000000000000000000000000000000000000000000000000000081526004016102d290610e3f565b60405180910390fd5b60008060146101000a81548160ff021916908315150217905550427fcfb9c5312b25ec7b809d61e638df25f749eae5d5c25399e1c93d1d319bfd5821336040516103259190610ca1565b60405180910390a2565b7f000000000000000000000000000000000000000000000000000000000000000081565b61035b610b24565b73ffffffffffffffffffffffffffffffffffffffff16610379610502565b73ffffffffffffffffffffffffffffffffffffffff16146103cf576040517f08c379a00000000000000000000000000000000000000000000000000000000081526004016103c690610dad565b60405180910390fd5b6103d96000610b2c565b565b6103e3610b24565b73ffffffffffffffffffffffffffffffffffffffff16610401610502565b73ffffffffffffffffffffffffffffffffffffffff1614610457576040517f08c379a000000000000000000000000000000000000000000000000000000000815260040161044e90610dad565b60405180910390fd5b60001515600060149054906101000a900460ff161515146104ad576040517f08c379a00000000000000000000000000000000000000000000000000000000081526004016104a490610ed1565b60405180910390fd5b6001600060146101000a81548160ff021916908315150217905550427f445ea36761b6ad845347c31a7b091cda3228ea32afc0cb1e812a7bb803f7f52e336040516104f89190610ca1565b60405180910390a2565b60008060009054906101000a900473ffffffffffffffffffffffffffffffffffffffff16905090565b60008060149054906101000a900460ff16905090565b60001515600060149054906101000a900460ff16151514610597576040517f08c379a000000000000000000000000000000000000000000000000000000000815260040161058e90610f3d565b60405180910390fd5b7f000000000000000000000000000000000000000000000000000000000000000073ffffffffffffffffffffffffffffffffffffffff1663babcc539336040518263ffffffff1660e01b81526004016105f09190610ca1565b602060405180830381865afa15801561060d573d6000803e3d6000fd5b505050506040513d601f19601f820116820180604052508101906106319190610f89565b610670576040517f08c379a000000000000000000000000000000000000000000000000000000000815260040161066790611028565b60405180910390fd5b60007f000000000000000000000000000000000000000000000000000000000000000073ffffffffffffffffffffffffffffffffffffffff1663313ce5676040518163ffffffff1660e01b8152600401602060405180830381865afa1580156106dd573d6000803e3d6000fd5b505050506040513d601f19601f820116820180604052508101906107019190611081565b600a61070d9190611210565b7f000000000000000000000000000000000000000000000000000000000000000034610739919061125b565b61074391906112e4565b905060008103610788576040517f08c379a000000000000000000000000000000000000000000000000000000000815260040161077f90611387565b60405180910390fd5b80610791610a7a565b10156107d2576040517f08c379a00000000000000000000000000000000000000000000000000000000081526004016107c990611419565b60405180910390fd5b7f000000000000000000000000000000000000000000000000000000000000000073ffffffffffffffffffffffffffffffffffffffff166323b872dd610816610502565b33846040518463ffffffff1660e01b815260040161083693929190611439565b6020604051808303816000875af1158015610855573d6000803e3d6000fd5b505050506040513d601f19601f820116820180604052508101906108799190610f89565b5060007f000000000000000000000000000000000000000000000000000000000000000073ffffffffffffffffffffffffffffffffffffffff16346040516108c0906114a1565b60006040518083038185875af1925050503d80600081146108fd576040519150601f19603f3d011682016040523d82523d6000602084013e610902565b606091505b5050905080610946576040517f08c379a000000000000000000000000000000000000000000000000000000000815260040161093d90611502565b60405180910390fd5b7f8f28852646c20cc973d3a8218f7eefed58c25c909f78f0265af4818c3d4dc2713383604051610977929190611522565b60405180910390a15050565b61098b610b24565b73ffffffffffffffffffffffffffffffffffffffff166109a9610502565b73ffffffffffffffffffffffffffffffffffffffff16146109ff576040517f08c379a00000000000000000000000000000000000000000000000000000000081526004016109f690610dad565b60405180910390fd5b600073ffffffffffffffffffffffffffffffffffffffff168173ffffffffffffffffffffffffffffffffffffffff1603610a6e576040517f08c379a0000000000000000000000000000000000000000000000000000000008152600401610a65906115bd565b60405180910390fd5b610a7781610b2c565b50565b60007f000000000000000000000000000000000000000000000000000000000000000073ffffffffffffffffffffffffffffffffffffffff1663dd62ed3e610ac0610502565b306040518363ffffffff1660e01b8152600401610ade9291906115dd565b602060405180830381865afa158015610afb573d6000803e3d6000fd5b505050506040513d601f19601f82011682018060405250810190610b1f9190611632565b905090565b600033905090565b60008060009054906101000a900473ffffffffffffffffffffffffffffffffffffffff169050816000806101000a81548173ffffffffffffffffffffffffffffffffffffffff021916908373ffffffffffffffffffffffffffffffffffffffff1602179055508173ffffffffffffffffffffffffffffffffffffffff168173ffffffffffffffffffffffffffffffffffffffff167f8be0079c531659141344cd1fd0a4f28419497f9722a3daafe3b4186f6b6457e060405160405180910390a35050565b6000819050919050565b610c0381610bf0565b82525050565b6000602082019050610c1e6000830184610bfa565b92915050565b600073ffffffffffffffffffffffffffffffffffffffff82169050919050565b6000610c4f82610c24565b9050919050565b610c5f81610c44565b82525050565b6000602082019050610c7a6000830184610c56565b92915050565b6000610c8b82610c24565b9050919050565b610c9b81610c80565b82525050565b6000602082019050610cb66000830184610c92565b92915050565b60008115159050919050565b610cd181610cbc565b82525050565b6000602082019050610cec6000830184610cc8565b92915050565b600080fd5b610d0081610c80565b8114610d0b57600080fd5b50565b600081359050610d1d81610cf7565b92915050565b600060208284031215610d3957610d38610cf2565b5b6000610d4784828501610d0e565b91505092915050565b600082825260208201905092915050565b7f4f776e61626c653a2063616c6c6572206973206e6f7420746865206f776e6572600082015250565b6000610d97602083610d50565b9150610da282610d61565b602082019050919050565b60006020820190508181036000830152610dc681610d8a565b9050919050565b7f5061757361626c653a20436f6e747261637420697320756e706175736564206160008201527f6c72656164792e00000000000000000000000000000000000000000000000000602082015250565b6000610e29602783610d50565b9150610e3482610dcd565b604082019050919050565b60006020820190508181036000830152610e5881610e1c565b9050919050565b7f5061757361626c653a20436f6e74726163742069732070617573656420616c7260008201527f656164792e000000000000000000000000000000000000000000000000000000602082015250565b6000610ebb602583610d50565b9150610ec682610e5f565b604082019050919050565b60006020820190508181036000830152610eea81610eae565b9050919050565b7f5061757361626c653a20436f6e7472616374206973207061757365642e000000600082015250565b6000610f27601d83610d50565b9150610f3282610ef1565b602082019050919050565b60006020820190508181036000830152610f5681610f1a565b9050919050565b610f6681610cbc565b8114610f7157600080fd5b50565b600081519050610f8381610f5d565b92915050565b600060208284031215610f9f57610f9e610cf2565b5b6000610fad84828501610f74565b91505092915050565b7f43726f776473616c653a2043616c6c6572204b5943206973206e6f7420636f6d60008201527f706c65746564207965742e000000000000000000000000000000000000000000602082015250565b6000611012602b83610d50565b915061101d82610fb6565b604082019050919050565b6000602082019050818103600083015261104181611005565b9050919050565b600060ff82169050919050565b61105e81611048565b811461106957600080fd5b50565b60008151905061107b81611055565b92915050565b60006020828403121561109757611096610cf2565b5b60006110a58482850161106c565b91505092915050565b7f4e487b7100000000000000000000000000000000000000000000000000000000600052601160045260246000fd5b60008160011c9050919050565b6000808291508390505b6001851115611134578086048111156111105761110f6110ae565b5b600185161561111f5780820291505b808102905061112d856110dd565b94506110f4565b94509492505050565b60008261114d5760019050611209565b8161115b5760009050611209565b8160018114611171576002811461117b576111aa565b6001915050611209565b60ff84111561118d5761118c6110ae565b5b8360020a9150848211156111a4576111a36110ae565b5b50611209565b5060208310610133831016604e8410600b84101617156111df5782820a9050838111156111da576111d96110ae565b5b611209565b6111ec84848460016110ea565b92509050818404811115611203576112026110ae565b5b81810290505b9392505050565b600061121b82610bf0565b915061122683611048565b92506112537fffffffffffffffffffffffffffffffffffffffffffffffffffffffffffffffff848461113d565b905092915050565b600061126682610bf0565b915061127183610bf0565b9250817fffffffffffffffffffffffffffffffffffffffffffffffffffffffffffffffff04831182151516156112aa576112a96110ae565b5b828202905092915050565b7f4e487b7100000000000000000000000000000000000000000000000000000000600052601260045260246000fd5b60006112ef82610bf0565b91506112fa83610bf0565b92508261130a576113096112b5565b5b828204905092915050565b7f43726f776473616c653a20546f6b656e20616d6f756e742063616e6e6f74206260008201527f6520302e00000000000000000000000000000000000000000000000000000000602082015250565b6000611371602483610d50565b915061137c82611315565b604082019050919050565b600060208201905081810360008301526113a081611364565b9050919050565b7f43726f776473616c653a20416d6f756e742065786365656473206c656674206160008201527f6c6c6f77616e63652e0000000000000000000000000000000000000000000000602082015250565b6000611403602983610d50565b915061140e826113a7565b604082019050919050565b60006020820190508181036000830152611432816113f6565b9050919050565b600060608201905061144e6000830186610c92565b61145b6020830185610c92565b6114686040830184610bfa565b949350505050565b600081905092915050565b50565b600061148b600083611470565b91506114968261147b565b600082019050919050565b60006114ac8261147e565b9150819050919050565b7f43726f776473616c653a20455448207472616e73666572206661696c65642e00600082015250565b60006114ec601f83610d50565b91506114f7826114b6565b602082019050919050565b6000602082019050818103600083015261151b816114df565b9050919050565b60006040820190506115376000830185610c92565b6115446020830184610bfa565b9392505050565b7f4f776e61626c653a206e6577206f776e657220697320746865207a65726f206160008201527f6464726573730000000000000000000000000000000000000000000000000000602082015250565b60006115a7602683610d50565b91506115b28261154b565b604082019050919050565b600060208201905081810360008301526115d68161159a565b9050919050565b60006040820190506115f26000830185610c92565b6115ff6020830184610c92565b9392505050565b61160f81610bf0565b811461161a57600080fd5b50565b60008151905061162c81611606565b92915050565b60006020828403121561164857611647610cf2565b5b60006116568482850161161d565b9150509291505056fea2646970667358221220bceaf23ca386318e7a5c54a23fd72623e1738b7e546d19070bdf81ffa31590ff64736f6c634300080d0033",
  "immutableReferences": {
    "833": [
      {
        "length": 32,
        "start": 1652
      },
      {
        "length": 32,
        "start": 2004
      },
      {
        "length": 32,
        "start": 2686
      }
    ],
    "836": [
      {
        "length": 32,
        "start": 1433
      }
    ],
    "838": [
      {
        "length": 32,
        "start": 817
      },
      {
        "length": 32,
        "start": 2174
      }
    ],
    "840": [
      {
        "length": 32,
        "start": 487
      },
      {
        "length": 32,
        "start": 1807
      }
    ]
  },
  "source": "// SPDX-License-Identifier: MIT\npragma solidity ^0.8.0;\n\nimport \"@openzeppelin/contracts/token/ERC20/ERC20.sol\";\nimport \"./Pausable.sol\";\nimport \"./KYCCheck.sol\";\n\ncontract Crowdsale is Pausable {\n\n    event TokensPurchased(address who, uint amount);\n\n    ERC20 immutable private _ERC20token;\n    KYCCheck immutable private _KYCCheck;\n    \n    address payable immutable public recipient;\n    uint public immutable rate; // tokens for 1 eth\n\n    constructor(ERC20 _token, KYCCheck _KYCContract,  address payable _recipient, uint _rate) Pausable() {\n        require(_token.balanceOf(owner()) > 0, \"Crowdsale: Deployer has no tokens to sell.\");\n        require(_recipient != address(0), \"Crowdsale: Receipient cannot be address 0.\");\n        _ERC20token = _token;\n        _KYCCheck = KYCCheck(_KYCContract);\n        recipient = _recipient;\n        rate = _rate;\n    }\n\n    function buyTokens() public payable notPaused {\n        require(_KYCCheck.isAllowed(msg.sender), \"Crowdsale: Caller KYC is not completed yet.\");\n\n        uint tokenAmount = (msg.value * rate) / 10 ** _ERC20token.decimals();\n        require(tokenAmount != 0, \"Crowdsale: Token amount cannot be 0.\");\n        require(getLeftAllowance() >= tokenAmount, \"Crowdsale: Amount exceeds left allowance.\");\n\n        _ERC20token.transferFrom(owner(), msg.sender, tokenAmount);\n        (bool success, /* data */) = recipient.call{ value: msg.value }(\"\");\n        require(success, \"Crowdsale: ETH transfer failed.\");\n        \n        emit TokensPurchased(msg.sender, tokenAmount);\n    }\n\n    function getLeftAllowance() public view returns(uint) {\n        return _ERC20token.allowance(owner(), address(this));\n    }\n}",
  "sourcePath": "/Users/matkuch/Code/erc20-crowdsale/contracts/Crowdsale.sol",
  "compiler": {
    "name": "solc",
    "version": "0.8.13+commit.abaa5c0e.Emscripten.clang"
  },
  "schemaVersion": "3.4.7",
  "updatedAt": "2022-04-28T09:24:54.763Z",
  "networkType": "ethereum",
  "devdoc": {
    "kind": "dev",
    "methods": {
      "owner()": {
        "details": "Returns the address of the current owner."
      },
      "renounceOwnership()": {
        "details": "Leaves the contract without owner. It will not be possible to call `onlyOwner` functions anymore. Can only be called by the current owner. NOTE: Renouncing ownership will leave the contract without an owner, thereby removing any functionality that is only available to the owner."
      },
      "transferOwnership(address)": {
        "details": "Transfers ownership of the contract to a new account (`newOwner`). Can only be called by the current owner."
      }
    },
    "version": 1
  },
  "userdoc": {
    "kind": "user",
    "methods": {},
    "version": 1
  }
}