{
  "contractName": "ERC20Token",
  "abi": [
    {
      "inputs": [
        {
          "internalType": "string",
          "name": "_name",
          "type": "string"
        },
        {
          "internalType": "string",
          "name": "_symbol",
          "type": "string"
        },
        {
          "internalType": "uint256",
          "name": "_maxSupply",
          "type": "uint256"
        }
      ],
      "stateMutability": "nonpayable",
      "type": "constructor"
    },
    {
      "anonymous": false,
      "inputs": [
        {
          "indexed": true,
          "internalType": "address",
          "name": "owner",
          "type": "address"
        },
        {
          "indexed": true,
          "internalType": "address",
          "name": "spender",
          "type": "address"
        },
        {
          "indexed": false,
          "internalType": "uint256",
          "name": "value",
          "type": "uint256"
        }
      ],
      "name": "Approval",
      "type": "event"
    },
    {
      "anonymous": false,
      "inputs": [
        {
          "indexed": true,
          "internalType": "address",
          "name": "previousOwner",
          "type": "address"
        },
        {
          "indexed": true,
          "internalType": "address",
          "name": "newOwner",
          "type": "address"
        }
      ],
      "name": "OwnershipTransferred",
      "type": "event"
    },
    {
      "anonymous": false,
      "inputs": [
        {
          "indexed": true,
          "internalType": "address",
          "name": "from",
          "type": "address"
        },
        {
          "indexed": true,
          "internalType": "address",
          "name": "to",
          "type": "address"
        },
        {
          "indexed": false,
          "internalType": "uint256",
          "name": "value",
          "type": "uint256"
        }
      ],
      "name": "Transfer",
      "type": "event"
    },
    {
      "inputs": [
        {
          "internalType": "address",
          "name": "owner",
          "type": "address"
        },
        {
          "internalType": "address",
          "name": "spender",
          "type": "address"
        }
      ],
      "name": "allowance",
      "outputs": [
        {
          "internalType": "uint256",
          "name": "",
          "type": "uint256"
        }
      ],
      "stateMutability": "view",
      "type": "function",
      "constant": true
    },
    {
      "inputs": [
        {
          "internalType": "address",
          "name": "spender",
          "type": "address"
        },
        {
          "internalType": "uint256",
          "name": "amount",
          "type": "uint256"
        }
      ],
      "name": "approve",
      "outputs": [
        {
          "internalType": "bool",
          "name": "",
          "type": "bool"
        }
      ],
      "stateMutability": "nonpayable",
      "type": "function"
    },
    {
      "inputs": [
        {
          "internalType": "address",
          "name": "account",
          "type": "address"
        }
      ],
      "name": "balanceOf",
      "outputs": [
        {
          "internalType": "uint256",
          "name": "",
          "type": "uint256"
        }
      ],
      "stateMutability": "view",
      "type": "function",
      "constant": true
    },
    {
      "inputs": [],
      "name": "decimals",
      "outputs": [
        {
          "internalType": "uint8",
          "name": "",
          "type": "uint8"
        }
      ],
      "stateMutability": "view",
      "type": "function",
      "constant": true
    },
    {
      "inputs": [
        {
          "internalType": "address",
          "name": "spender",
          "type": "address"
        },
        {
          "internalType": "uint256",
          "name": "subtractedValue",
          "type": "uint256"
        }
      ],
      "name": "decreaseAllowance",
      "outputs": [
        {
          "internalType": "bool",
          "name": "",
          "type": "bool"
        }
      ],
      "stateMutability": "nonpayable",
      "type": "function"
    },
    {
      "inputs": [
        {
          "internalType": "address",
          "name": "spender",
          "type": "address"
        },
        {
          "internalType": "uint256",
          "name": "addedValue",
          "type": "uint256"
        }
      ],
      "name": "increaseAllowance",
      "outputs": [
        {
          "internalType": "bool",
          "name": "",
          "type": "bool"
        }
      ],
      "stateMutability": "nonpayable",
      "type": "function"
    },
    {
      "inputs": [],
      "name": "name",
      "outputs": [
        {
          "internalType": "string",
          "name": "",
          "type": "string"
        }
      ],
      "stateMutability": "view",
      "type": "function",
      "constant": true
    },
    {
      "inputs": [],
      "name": "owner",
      "outputs": [
        {
          "internalType": "address",
          "name": "",
          "type": "address"
        }
      ],
      "stateMutability": "view",
      "type": "function",
      "constant": true
    },
    {
      "inputs": [],
      "name": "renounceOwnership",
      "outputs": [],
      "stateMutability": "nonpayable",
      "type": "function"
    },
    {
      "inputs": [],
      "name": "symbol",
      "outputs": [
        {
          "internalType": "string",
          "name": "",
          "type": "string"
        }
      ],
      "stateMutability": "view",
      "type": "function",
      "constant": true
    },
    {
      "inputs": [],
      "name": "totalSupply",
      "outputs": [
        {
          "internalType": "uint256",
          "name": "",
          "type": "uint256"
        }
      ],
      "stateMutability": "view",
      "type": "function",
      "constant": true
    },
    {
      "inputs": [
        {
          "internalType": "address",
          "name": "to",
          "type": "address"
        },
        {
          "internalType": "uint256",
          "name": "amount",
          "type": "uint256"
        }
      ],
      "name": "transfer",
      "outputs": [
        {
          "internalType": "bool",
          "name": "",
          "type": "bool"
        }
      ],
      "stateMutability": "nonpayable",
      "type": "function"
    },
    {
      "inputs": [
        {
          "internalType": "address",
          "name": "from",
          "type": "address"
        },
        {
          "internalType": "address",
          "name": "to",
          "type": "address"
        },
        {
          "internalType": "uint256",
          "name": "amount",
          "type": "uint256"
        }
      ],
      "name": "transferFrom",
      "outputs": [
        {
          "internalType": "bool",
          "name": "",
          "type": "bool"
        }
      ],
      "stateMutability": "nonpayable",
      "type": "function"
    },
    {
      "inputs": [
        {
          "internalType": "address",
          "name": "newOwner",
          "type": "address"
        }
      ],
      "name": "transferOwnership",
      "outputs": [],
      "stateMutability": "nonpayable",
      "type": "function"
    },
    {
      "inputs": [
        {
          "internalType": "uint256",
          "name": "_amount",
          "type": "uint256"
        },
        {
          "internalType": "address",
          "name": "_to",
          "type": "address"
        }
      ],
      "name": "mint",
      "outputs": [],
      "stateMutability": "nonpayable",
      "type": "function"
    },
    {
      "inputs": [],
      "name": "maxSupply",
      "outputs": [
        {
          "internalType": "uint256",
          "name": "",
          "type": "uint256"
        }
      ],
      "stateMutability": "view",
      "type": "function",
      "constant": true
    }
  ],
  "bytecode": "0x60a06040523480156200001157600080fd5b506040516200251738038062002517833981810160405281019062000037919062000427565b82828160039080519060200190620000519291906200019f565b5080600490805190602001906200006a9291906200019f565b5050506200008d62000081620000c860201b60201c565b620000d060201b60201c565b6200009d6200019660201b60201c565b600a620000ab919062000651565b81620000b89190620006a2565b6080818152505050505062000767565b600033905090565b6000600560009054906101000a900473ffffffffffffffffffffffffffffffffffffffff16905081600560006101000a81548173ffffffffffffffffffffffffffffffffffffffff021916908373ffffffffffffffffffffffffffffffffffffffff1602179055508173ffffffffffffffffffffffffffffffffffffffff168173ffffffffffffffffffffffffffffffffffffffff167f8be0079c531659141344cd1fd0a4f28419497f9722a3daafe3b4186f6b6457e060405160405180910390a35050565b60006012905090565b828054620001ad9062000732565b90600052602060002090601f016020900481019282620001d157600085556200021d565b82601f10620001ec57805160ff19168380011785556200021d565b828001600101855582156200021d579182015b828111156200021c578251825591602001919060010190620001ff565b5b5090506200022c919062000230565b5090565b5b808211156200024b57600081600090555060010162000231565b5090565b6000604051905090565b600080fd5b600080fd5b600080fd5b600080fd5b6000601f19601f8301169050919050565b7f4e487b7100000000000000000000000000000000000000000000000000000000600052604160045260246000fd5b620002b8826200026d565b810181811067ffffffffffffffff82111715620002da57620002d96200027e565b5b80604052505050565b6000620002ef6200024f565b9050620002fd8282620002ad565b919050565b600067ffffffffffffffff82111562000320576200031f6200027e565b5b6200032b826200026d565b9050602081019050919050565b60005b83811015620003585780820151818401526020810190506200033b565b8381111562000368576000848401525b50505050565b6000620003856200037f8462000302565b620002e3565b905082815260208101848484011115620003a457620003a362000268565b5b620003b184828562000338565b509392505050565b600082601f830112620003d157620003d062000263565b5b8151620003e38482602086016200036e565b91505092915050565b6000819050919050565b6200040181620003ec565b81146200040d57600080fd5b50565b6000815190506200042181620003f6565b92915050565b60008060006060848603121562000443576200044262000259565b5b600084015167ffffffffffffffff8111156200046457620004636200025e565b5b6200047286828701620003b9565b935050602084015167ffffffffffffffff8111156200049657620004956200025e565b5b620004a486828701620003b9565b9250506040620004b78682870162000410565b9150509250925092565b7f4e487b7100000000000000000000000000000000000000000000000000000000600052601160045260246000fd5b60008160011c9050919050565b6000808291508390505b60018511156200054f57808604811115620005275762000526620004c1565b5b6001851615620005375780820291505b80810290506200054785620004f0565b945062000507565b94509492505050565b6000826200056a57600190506200063d565b816200057a57600090506200063d565b81600181146200059357600281146200059e57620005d4565b60019150506200063d565b60ff841115620005b357620005b2620004c1565b5b8360020a915084821115620005cd57620005cc620004c1565b5b506200063d565b5060208310610133831016604e8410600b84101617156200060e5782820a905083811115620006085762000607620004c1565b5b6200063d565b6200061d8484846001620004fd565b92509050818404811115620006375762000636620004c1565b5b81810290505b9392505050565b600060ff82169050919050565b60006200065e82620003ec565b91506200066b8362000644565b92506200069a7fffffffffffffffffffffffffffffffffffffffffffffffffffffffffffffffff848462000558565b905092915050565b6000620006af82620003ec565b9150620006bc83620003ec565b9250817fffffffffffffffffffffffffffffffffffffffffffffffffffffffffffffffff0483118215151615620006f857620006f7620004c1565b5b828202905092915050565b7f4e487b7100000000000000000000000000000000000000000000000000000000600052602260045260246000fd5b600060028204905060018216806200074b57607f821691505b60208210810362000761576200076062000703565b5b50919050565b608051611d8d6200078a6000396000818161066401526108c40152611d8d6000f3fe608060405234801561001057600080fd5b50600436106101005760003560e01c80638da5cb5b11610097578063a9059cbb11610066578063a9059cbb146102b1578063d5abeb01146102e1578063dd62ed3e146102ff578063f2fde38b1461032f57610100565b80638da5cb5b1461022957806394bf804d1461024757806395d89b4114610263578063a457c2d71461028157610100565b8063313ce567116100d3578063313ce567146101a157806339509351146101bf57806370a08231146101ef578063715018a61461021f57610100565b806306fdde0314610105578063095ea7b31461012357806318160ddd1461015357806323b872dd14610171575b600080fd5b61010d61034b565b60405161011a919061120a565b60405180910390f35b61013d600480360381019061013891906112c5565b6103dd565b60405161014a9190611320565b60405180910390f35b61015b610400565b604051610168919061134a565b60405180910390f35b61018b60048036038101906101869190611365565b61040a565b6040516101989190611320565b60405180910390f35b6101a9610439565b6040516101b691906113d4565b60405180910390f35b6101d960048036038101906101d491906112c5565b610442565b6040516101e69190611320565b60405180910390f35b610209600480360381019061020491906113ef565b6104ec565b604051610216919061134a565b60405180910390f35b610227610534565b005b6102316105bc565b60405161023e919061142b565b60405180910390f35b610261600480360381019061025c9190611446565b6105e6565b005b61026b610721565b604051610278919061120a565b60405180910390f35b61029b600480360381019061029691906112c5565b6107b3565b6040516102a89190611320565b60405180910390f35b6102cb60048036038101906102c691906112c5565b61089d565b6040516102d89190611320565b60405180910390f35b6102e96108c0565b6040516102f6919061134a565b60405180910390f35b61031960048036038101906103149190611486565b6108e8565b604051610326919061134a565b60405180910390f35b610349600480360381019061034491906113ef565b61096f565b005b60606003805461035a906114f5565b80601f0160208091040260200160405190810160405280929190818152602001828054610386906114f5565b80156103d35780601f106103a8576101008083540402835291602001916103d3565b820191906000526020600020905b8154815290600101906020018083116103b657829003601f168201915b5050505050905090565b6000806103e8610a66565b90506103f5818585610a6e565b600191505092915050565b6000600254905090565b600080610415610a66565b9050610422858285610c37565b61042d858585610cc3565b60019150509392505050565b60006012905090565b60008061044d610a66565b90506104e1818585600160008673ffffffffffffffffffffffffffffffffffffffff1673ffffffffffffffffffffffffffffffffffffffff16815260200190815260200160002060008973ffffffffffffffffffffffffffffffffffffffff1673ffffffffffffffffffffffffffffffffffffffff168152602001908152602001600020546104dc9190611555565b610a6e565b600191505092915050565b60008060008373ffffffffffffffffffffffffffffffffffffffff1673ffffffffffffffffffffffffffffffffffffffff168152602001908152602001600020549050919050565b61053c610a66565b73ffffffffffffffffffffffffffffffffffffffff1661055a6105bc565b73ffffffffffffffffffffffffffffffffffffffff16146105b0576040517f08c379a00000000000000000000000000000000000000000000000000000000081526004016105a7906115f7565b60405180910390fd5b6105ba6000610f42565b565b6000600560009054906101000a900473ffffffffffffffffffffffffffffffffffffffff16905090565b6105ee610a66565b73ffffffffffffffffffffffffffffffffffffffff1661060c6105bc565b73ffffffffffffffffffffffffffffffffffffffff1614610662576040517f08c379a0000000000000000000000000000000000000000000000000000000008152600401610659906115f7565b60405180910390fd5b7f000000000000000000000000000000000000000000000000000000000000000061068b610439565b600a610697919061174a565b836106a29190611795565b6106aa610400565b6106b49190611555565b11156106f5576040517f08c379a00000000000000000000000000000000000000000000000000000000081526004016106ec90611861565b60405180910390fd5b61071d81610701610439565b600a61070d919061174a565b846107189190611795565b611008565b5050565b606060048054610730906114f5565b80601f016020809104026020016040519081016040528092919081815260200182805461075c906114f5565b80156107a95780601f1061077e576101008083540402835291602001916107a9565b820191906000526020600020905b81548152906001019060200180831161078c57829003601f168201915b5050505050905090565b6000806107be610a66565b90506000600160008373ffffffffffffffffffffffffffffffffffffffff1673ffffffffffffffffffffffffffffffffffffffff16815260200190815260200160002060008673ffffffffffffffffffffffffffffffffffffffff1673ffffffffffffffffffffffffffffffffffffffff16815260200190815260200160002054905083811015610884576040517f08c379a000000000000000000000000000000000000000000000000000000000815260040161087b906118f3565b60405180910390fd5b6108918286868403610a6e565b60019250505092915050565b6000806108a8610a66565b90506108b5818585610cc3565b600191505092915050565b60007f0000000000000000000000000000000000000000000000000000000000000000905090565b6000600160008473ffffffffffffffffffffffffffffffffffffffff1673ffffffffffffffffffffffffffffffffffffffff16815260200190815260200160002060008373ffffffffffffffffffffffffffffffffffffffff1673ffffffffffffffffffffffffffffffffffffffff16815260200190815260200160002054905092915050565b610977610a66565b73ffffffffffffffffffffffffffffffffffffffff166109956105bc565b73ffffffffffffffffffffffffffffffffffffffff16146109eb576040517f08c379a00000000000000000000000000000000000000000000000000000000081526004016109e2906115f7565b60405180910390fd5b600073ffffffffffffffffffffffffffffffffffffffff168173ffffffffffffffffffffffffffffffffffffffff1603610a5a576040517f08c379a0000000000000000000000000000000000000000000000000000000008152600401610a5190611985565b60405180910390fd5b610a6381610f42565b50565b600033905090565b600073ffffffffffffffffffffffffffffffffffffffff168373ffffffffffffffffffffffffffffffffffffffff1603610add576040517f08c379a0000000000000000000000000000000000000000000000000000000008152600401610ad490611a17565b60405180910390fd5b600073ffffffffffffffffffffffffffffffffffffffff168273ffffffffffffffffffffffffffffffffffffffff1603610b4c576040517f08c379a0000000000000000000000000000000000000000000000000000000008152600401610b4390611aa9565b60405180910390fd5b80600160008573ffffffffffffffffffffffffffffffffffffffff1673ffffffffffffffffffffffffffffffffffffffff16815260200190815260200160002060008473ffffffffffffffffffffffffffffffffffffffff1673ffffffffffffffffffffffffffffffffffffffff168152602001908152602001600020819055508173ffffffffffffffffffffffffffffffffffffffff168373ffffffffffffffffffffffffffffffffffffffff167f8c5be1e5ebec7d5bd14f71427d1e84f3dd0314c0f7b2291e5b200ac8c7c3b92583604051610c2a919061134a565b60405180910390a3505050565b6000610c4384846108e8565b90507fffffffffffffffffffffffffffffffffffffffffffffffffffffffffffffffff8114610cbd5781811015610caf576040517f08c379a0000000000000000000000000000000000000000000000000000000008152600401610ca690611b15565b60405180910390fd5b610cbc8484848403610a6e565b5b50505050565b600073ffffffffffffffffffffffffffffffffffffffff168373ffffffffffffffffffffffffffffffffffffffff1603610d32576040517f08c379a0000000000000000000000000000000000000000000000000000000008152600401610d2990611ba7565b60405180910390fd5b600073ffffffffffffffffffffffffffffffffffffffff168273ffffffffffffffffffffffffffffffffffffffff1603610da1576040517f08c379a0000000000000000000000000000000000000000000000000000000008152600401610d9890611c39565b60405180910390fd5b610dac838383611167565b60008060008573ffffffffffffffffffffffffffffffffffffffff1673ffffffffffffffffffffffffffffffffffffffff16815260200190815260200160002054905081811015610e32576040517f08c379a0000000000000000000000000000000000000000000000000000000008152600401610e2990611ccb565b60405180910390fd5b8181036000808673ffffffffffffffffffffffffffffffffffffffff1673ffffffffffffffffffffffffffffffffffffffff16815260200190815260200160002081905550816000808573ffffffffffffffffffffffffffffffffffffffff1673ffffffffffffffffffffffffffffffffffffffff1681526020019081526020016000206000828254610ec59190611555565b925050819055508273ffffffffffffffffffffffffffffffffffffffff168473ffffffffffffffffffffffffffffffffffffffff167fddf252ad1be2c89b69c2b068fc378daa952ba7f163c4a11628f55a4df523b3ef84604051610f29919061134a565b60405180910390a3610f3c84848461116c565b50505050565b6000600560009054906101000a900473ffffffffffffffffffffffffffffffffffffffff16905081600560006101000a81548173ffffffffffffffffffffffffffffffffffffffff021916908373ffffffffffffffffffffffffffffffffffffffff1602179055508173ffffffffffffffffffffffffffffffffffffffff168173ffffffffffffffffffffffffffffffffffffffff167f8be0079c531659141344cd1fd0a4f28419497f9722a3daafe3b4186f6b6457e060405160405180910390a35050565b600073ffffffffffffffffffffffffffffffffffffffff168273ffffffffffffffffffffffffffffffffffffffff1603611077576040517f08c379a000000000000000000000000000000000000000000000000000000000815260040161106e90611d37565b60405180910390fd5b61108360008383611167565b80600260008282546110959190611555565b92505081905550806000808473ffffffffffffffffffffffffffffffffffffffff1673ffffffffffffffffffffffffffffffffffffffff16815260200190815260200160002060008282546110ea9190611555565b925050819055508173ffffffffffffffffffffffffffffffffffffffff16600073ffffffffffffffffffffffffffffffffffffffff167fddf252ad1be2c89b69c2b068fc378daa952ba7f163c4a11628f55a4df523b3ef8360405161114f919061134a565b60405180910390a36111636000838361116c565b5050565b505050565b505050565b600081519050919050565b600082825260208201905092915050565b60005b838110156111ab578082015181840152602081019050611190565b838111156111ba576000848401525b50505050565b6000601f19601f8301169050919050565b60006111dc82611171565b6111e6818561117c565b93506111f681856020860161118d565b6111ff816111c0565b840191505092915050565b6000602082019050818103600083015261122481846111d1565b905092915050565b600080fd5b600073ffffffffffffffffffffffffffffffffffffffff82169050919050565b600061125c82611231565b9050919050565b61126c81611251565b811461127757600080fd5b50565b60008135905061128981611263565b92915050565b6000819050919050565b6112a28161128f565b81146112ad57600080fd5b50565b6000813590506112bf81611299565b92915050565b600080604083850312156112dc576112db61122c565b5b60006112ea8582860161127a565b92505060206112fb858286016112b0565b9150509250929050565b60008115159050919050565b61131a81611305565b82525050565b60006020820190506113356000830184611311565b92915050565b6113448161128f565b82525050565b600060208201905061135f600083018461133b565b92915050565b60008060006060848603121561137e5761137d61122c565b5b600061138c8682870161127a565b935050602061139d8682870161127a565b92505060406113ae868287016112b0565b9150509250925092565b600060ff82169050919050565b6113ce816113b8565b82525050565b60006020820190506113e960008301846113c5565b92915050565b6000602082840312156114055761140461122c565b5b60006114138482850161127a565b91505092915050565b61142581611251565b82525050565b6000602082019050611440600083018461141c565b92915050565b6000806040838503121561145d5761145c61122c565b5b600061146b858286016112b0565b925050602061147c8582860161127a565b9150509250929050565b6000806040838503121561149d5761149c61122c565b5b60006114ab8582860161127a565b92505060206114bc8582860161127a565b9150509250929050565b7f4e487b7100000000000000000000000000000000000000000000000000000000600052602260045260246000fd5b6000600282049050600182168061150d57607f821691505b6020821081036115205761151f6114c6565b5b50919050565b7f4e487b7100000000000000000000000000000000000000000000000000000000600052601160045260246000fd5b60006115608261128f565b915061156b8361128f565b9250827fffffffffffffffffffffffffffffffffffffffffffffffffffffffffffffffff038211156115a05761159f611526565b5b828201905092915050565b7f4f776e61626c653a2063616c6c6572206973206e6f7420746865206f776e6572600082015250565b60006115e160208361117c565b91506115ec826115ab565b602082019050919050565b60006020820190508181036000830152611610816115d4565b9050919050565b60008160011c9050919050565b6000808291508390505b600185111561166e5780860481111561164a57611649611526565b5b60018516156116595780820291505b808102905061166785611617565b945061162e565b94509492505050565b6000826116875760019050611743565b816116955760009050611743565b81600181146116ab57600281146116b5576116e4565b6001915050611743565b60ff8411156116c7576116c6611526565b5b8360020a9150848211156116de576116dd611526565b5b50611743565b5060208310610133831016604e8410600b84101617156117195782820a90508381111561171457611713611526565b5b611743565b6117268484846001611624565b9250905081840481111561173d5761173c611526565b5b81810290505b9392505050565b60006117558261128f565b9150611760836113b8565b925061178d7fffffffffffffffffffffffffffffffffffffffffffffffffffffffffffffffff8484611677565b905092915050565b60006117a08261128f565b91506117ab8361128f565b9250817fffffffffffffffffffffffffffffffffffffffffffffffffffffffffffffffff04831182151516156117e4576117e3611526565b5b828202905092915050565b7f4552433230546f6b656e3a20416d6f756e7420657863656564696e67206d617860008201527f20737570706c792e000000000000000000000000000000000000000000000000602082015250565b600061184b60288361117c565b9150611856826117ef565b604082019050919050565b6000602082019050818103600083015261187a8161183e565b9050919050565b7f45524332303a2064656372656173656420616c6c6f77616e63652062656c6f7760008201527f207a65726f000000000000000000000000000000000000000000000000000000602082015250565b60006118dd60258361117c565b91506118e882611881565b604082019050919050565b6000602082019050818103600083015261190c816118d0565b9050919050565b7f4f776e61626c653a206e6577206f776e657220697320746865207a65726f206160008201527f6464726573730000000000000000000000000000000000000000000000000000602082015250565b600061196f60268361117c565b915061197a82611913565b604082019050919050565b6000602082019050818103600083015261199e81611962565b9050919050565b7f45524332303a20617070726f76652066726f6d20746865207a65726f2061646460008201527f7265737300000000000000000000000000000000000000000000000000000000602082015250565b6000611a0160248361117c565b9150611a0c826119a5565b604082019050919050565b60006020820190508181036000830152611a30816119f4565b9050919050565b7f45524332303a20617070726f766520746f20746865207a65726f20616464726560008201527f7373000000000000000000000000000000000000000000000000000000000000602082015250565b6000611a9360228361117c565b9150611a9e82611a37565b604082019050919050565b60006020820190508181036000830152611ac281611a86565b9050919050565b7f45524332303a20696e73756666696369656e7420616c6c6f77616e6365000000600082015250565b6000611aff601d8361117c565b9150611b0a82611ac9565b602082019050919050565b60006020820190508181036000830152611b2e81611af2565b9050919050565b7f45524332303a207472616e736665722066726f6d20746865207a65726f20616460008201527f6472657373000000000000000000000000000000000000000000000000000000602082015250565b6000611b9160258361117c565b9150611b9c82611b35565b604082019050919050565b60006020820190508181036000830152611bc081611b84565b9050919050565b7f45524332303a207472616e7366657220746f20746865207a65726f206164647260008201527f6573730000000000000000000000000000000000000000000000000000000000602082015250565b6000611c2360238361117c565b9150611c2e82611bc7565b604082019050919050565b60006020820190508181036000830152611c5281611c16565b9050919050565b7f45524332303a207472616e7366657220616d6f756e742065786365656473206260008201527f616c616e63650000000000000000000000000000000000000000000000000000602082015250565b6000611cb560268361117c565b9150611cc082611c59565b604082019050919050565b60006020820190508181036000830152611ce481611ca8565b9050919050565b7f45524332303a206d696e7420746f20746865207a65726f206164647265737300600082015250565b6000611d21601f8361117c565b9150611d2c82611ceb565b602082019050919050565b60006020820190508181036000830152611d5081611d14565b905091905056fea264697066735822122043b4adceec702660d9f614956b9f8a2431c19471eb05ffbc180eb52ad5f0e95864736f6c634300080d0033",
  "immutableReferences": {
    "827": [
      {
        "length": 32,
        "start": 1636
      },
      {
        "length": 32,
        "start": 2244
      }
    ]
  },
  "source": "// SPDX-License-Identifier: MIT\npragma solidity ^0.8.0;\n\nimport \"@openzeppelin/contracts/token/ERC20/ERC20.sol\";\nimport \"@openzeppelin/contracts/access/Ownable.sol\";\n\ncontract ERC20Token is ERC20, Ownable {\n\n    uint256 immutable MAX_SUPPLY;\n    constructor(string memory _name, string memory _symbol, uint _maxSupply) ERC20(_name, _symbol) {\n        MAX_SUPPLY = _maxSupply * 10 ** decimals();\n    }\n\n    function mint(uint256 _amount, address _to) public onlyOwner {\n        require(totalSupply() + _amount * 10 ** decimals() <= MAX_SUPPLY, \"ERC20Token: Amount exceeding max supply.\");\n        _mint(_to, _amount * 10 ** decimals());\n    }\n\n    function maxSupply() public view returns(uint256) {\n        return MAX_SUPPLY;\n    }\n\n}",
  "sourcePath": "/Users/matkuch/Code/erc20-crowdsale/contracts/ERC20Token.sol",
  "compiler": {
    "name": "solc",
    "version": "0.8.13+commit.abaa5c0e.Emscripten.clang"
  },
  "schemaVersion": "3.4.7",
  "updatedAt": "2022-04-26T17:41:20.130Z",
  "networkType": "ethereum",
  "devdoc": {
    "kind": "dev",
    "methods": {
      "allowance(address,address)": {
        "details": "See {IERC20-allowance}."
      },
      "approve(address,uint256)": {
        "details": "See {IERC20-approve}. NOTE: If `amount` is the maximum `uint256`, the allowance is not updated on `transferFrom`. This is semantically equivalent to an infinite approval. Requirements: - `spender` cannot be the zero address."
      },
      "balanceOf(address)": {
        "details": "See {IERC20-balanceOf}."
      },
      "decimals()": {
        "details": "Returns the number of decimals used to get its user representation. For example, if `decimals` equals `2`, a balance of `505` tokens should be displayed to a user as `5.05` (`505 / 10 ** 2`). Tokens usually opt for a value of 18, imitating the relationship between Ether and Wei. This is the value {ERC20} uses, unless this function is overridden; NOTE: This information is only used for _display_ purposes: it in no way affects any of the arithmetic of the contract, including {IERC20-balanceOf} and {IERC20-transfer}."
      },
      "decreaseAllowance(address,uint256)": {
        "details": "Atomically decreases the allowance granted to `spender` by the caller. This is an alternative to {approve} that can be used as a mitigation for problems described in {IERC20-approve}. Emits an {Approval} event indicating the updated allowance. Requirements: - `spender` cannot be the zero address. - `spender` must have allowance for the caller of at least `subtractedValue`."
      },
      "increaseAllowance(address,uint256)": {
        "details": "Atomically increases the allowance granted to `spender` by the caller. This is an alternative to {approve} that can be used as a mitigation for problems described in {IERC20-approve}. Emits an {Approval} event indicating the updated allowance. Requirements: - `spender` cannot be the zero address."
      },
      "name()": {
        "details": "Returns the name of the token."
      },
      "owner()": {
        "details": "Returns the address of the current owner."
      },
      "renounceOwnership()": {
        "details": "Leaves the contract without owner. It will not be possible to call `onlyOwner` functions anymore. Can only be called by the current owner. NOTE: Renouncing ownership will leave the contract without an owner, thereby removing any functionality that is only available to the owner."
      },
      "symbol()": {
        "details": "Returns the symbol of the token, usually a shorter version of the name."
      },
      "totalSupply()": {
        "details": "See {IERC20-totalSupply}."
      },
      "transfer(address,uint256)": {
        "details": "See {IERC20-transfer}. Requirements: - `to` cannot be the zero address. - the caller must have a balance of at least `amount`."
      },
      "transferFrom(address,address,uint256)": {
        "details": "See {IERC20-transferFrom}. Emits an {Approval} event indicating the updated allowance. This is not required by the EIP. See the note at the beginning of {ERC20}. NOTE: Does not update the allowance if the current allowance is the maximum `uint256`. Requirements: - `from` and `to` cannot be the zero address. - `from` must have a balance of at least `amount`. - the caller must have allowance for ``from``'s tokens of at least `amount`."
      },
      "transferOwnership(address)": {
        "details": "Transfers ownership of the contract to a new account (`newOwner`). Can only be called by the current owner."
      }
    },
    "version": 1
  },
  "userdoc": {
    "kind": "user",
    "methods": {},
    "version": 1
  }
}