{
  "contractName": "Pausable",
  "abi": [
    {
      "anonymous": false,
      "inputs": [
        {
          "indexed": true,
          "internalType": "address",
          "name": "previousOwner",
          "type": "address"
        },
        {
          "indexed": true,
          "internalType": "address",
          "name": "newOwner",
          "type": "address"
        }
      ],
      "name": "OwnershipTransferred",
      "type": "event"
    },
    {
      "anonymous": false,
      "inputs": [
        {
          "indexed": false,
          "internalType": "address",
          "name": "by",
          "type": "address"
        },
        {
          "indexed": true,
          "internalType": "uint256",
          "name": "when",
          "type": "uint256"
        }
      ],
      "name": "Start",
      "type": "event"
    },
    {
      "anonymous": false,
      "inputs": [
        {
          "indexed": false,
          "internalType": "address",
          "name": "by",
          "type": "address"
        },
        {
          "indexed": true,
          "internalType": "uint256",
          "name": "when",
          "type": "uint256"
        }
      ],
      "name": "Stop",
      "type": "event"
    },
    {
      "inputs": [],
      "name": "owner",
      "outputs": [
        {
          "internalType": "address",
          "name": "",
          "type": "address"
        }
      ],
      "stateMutability": "view",
      "type": "function"
    },
    {
      "inputs": [],
      "name": "renounceOwnership",
      "outputs": [],
      "stateMutability": "nonpayable",
      "type": "function"
    },
    {
      "inputs": [
        {
          "internalType": "address",
          "name": "newOwner",
          "type": "address"
        }
      ],
      "name": "transferOwnership",
      "outputs": [],
      "stateMutability": "nonpayable",
      "type": "function"
    },
    {
      "inputs": [],
      "name": "isPaused",
      "outputs": [
        {
          "internalType": "bool",
          "name": "",
          "type": "bool"
        }
      ],
      "stateMutability": "view",
      "type": "function"
    },
    {
      "inputs": [],
      "name": "pause",
      "outputs": [],
      "stateMutability": "nonpayable",
      "type": "function"
    },
    {
      "inputs": [],
      "name": "unpause",
      "outputs": [],
      "stateMutability": "nonpayable",
      "type": "function"
    }
  ],
  "bytecode": "0x608060405234801561001057600080fd5b5061002d61002261003260201b60201c565b61003a60201b60201c565b6100fe565b600033905090565b60008060009054906101000a900473ffffffffffffffffffffffffffffffffffffffff169050816000806101000a81548173ffffffffffffffffffffffffffffffffffffffff021916908373ffffffffffffffffffffffffffffffffffffffff1602179055508173ffffffffffffffffffffffffffffffffffffffff168173ffffffffffffffffffffffffffffffffffffffff167f8be0079c531659141344cd1fd0a4f28419497f9722a3daafe3b4186f6b6457e060405160405180910390a35050565b61090d8061010d6000396000f3fe608060405234801561001057600080fd5b50600436106100625760003560e01c80633f4ba83a14610067578063715018a6146100715780638456cb591461007b5780638da5cb5b14610085578063b187bd26146100a3578063f2fde38b146100c1575b600080fd5b61006f6100dd565b005b610079610203565b005b61008361028b565b005b61008d6103b2565b60405161009a91906105f5565b60405180910390f35b6100ab6103db565b6040516100b8919061062b565b60405180910390f35b6100db60048036038101906100d69190610677565b6103f1565b005b6100e56104e8565b73ffffffffffffffffffffffffffffffffffffffff166101036103b2565b73ffffffffffffffffffffffffffffffffffffffff1614610159576040517f08c379a000000000000000000000000000000000000000000000000000000000815260040161015090610701565b60405180910390fd5b60011515600060149054906101000a900460ff161515146101af576040517f08c379a00000000000000000000000000000000000000000000000000000000081526004016101a690610793565b60405180910390fd5b60008060146101000a81548160ff021916908315150217905550427fcfb9c5312b25ec7b809d61e638df25f749eae5d5c25399e1c93d1d319bfd5821336040516101f991906105f5565b60405180910390a2565b61020b6104e8565b73ffffffffffffffffffffffffffffffffffffffff166102296103b2565b73ffffffffffffffffffffffffffffffffffffffff161461027f576040517f08c379a000000000000000000000000000000000000000000000000000000000815260040161027690610701565b60405180910390fd5b61028960006104f0565b565b6102936104e8565b73ffffffffffffffffffffffffffffffffffffffff166102b16103b2565b73ffffffffffffffffffffffffffffffffffffffff1614610307576040517f08c379a00000000000000000000000000000000000000000000000000000000081526004016102fe90610701565b60405180910390fd5b60001515600060149054906101000a900460ff1615151461035d576040517f08c379a000000000000000000000000000000000000000000000000000000000815260040161035490610825565b60405180910390fd5b6001600060146101000a81548160ff021916908315150217905550427f445ea36761b6ad845347c31a7b091cda3228ea32afc0cb1e812a7bb803f7f52e336040516103a891906105f5565b60405180910390a2565b60008060009054906101000a900473ffffffffffffffffffffffffffffffffffffffff16905090565b60008060149054906101000a900460ff16905090565b6103f96104e8565b73ffffffffffffffffffffffffffffffffffffffff166104176103b2565b73ffffffffffffffffffffffffffffffffffffffff161461046d576040517f08c379a000000000000000000000000000000000000000000000000000000000815260040161046490610701565b60405180910390fd5b600073ffffffffffffffffffffffffffffffffffffffff168173ffffffffffffffffffffffffffffffffffffffff16036104dc576040517f08c379a00000000000000000000000000000000000000000000000000000000081526004016104d3906108b7565b60405180910390fd5b6104e5816104f0565b50565b600033905090565b60008060009054906101000a900473ffffffffffffffffffffffffffffffffffffffff169050816000806101000a81548173ffffffffffffffffffffffffffffffffffffffff021916908373ffffffffffffffffffffffffffffffffffffffff1602179055508173ffffffffffffffffffffffffffffffffffffffff168173ffffffffffffffffffffffffffffffffffffffff167f8be0079c531659141344cd1fd0a4f28419497f9722a3daafe3b4186f6b6457e060405160405180910390a35050565b600073ffffffffffffffffffffffffffffffffffffffff82169050919050565b60006105df826105b4565b9050919050565b6105ef816105d4565b82525050565b600060208201905061060a60008301846105e6565b92915050565b60008115159050919050565b61062581610610565b82525050565b6000602082019050610640600083018461061c565b92915050565b600080fd5b610654816105d4565b811461065f57600080fd5b50565b6000813590506106718161064b565b92915050565b60006020828403121561068d5761068c610646565b5b600061069b84828501610662565b91505092915050565b600082825260208201905092915050565b7f4f776e61626c653a2063616c6c6572206973206e6f7420746865206f776e6572600082015250565b60006106eb6020836106a4565b91506106f6826106b5565b602082019050919050565b6000602082019050818103600083015261071a816106de565b9050919050565b7f5061757361626c653a20436f6e747261637420697320756e706175736564206160008201527f6c72656164792e00000000000000000000000000000000000000000000000000602082015250565b600061077d6027836106a4565b915061078882610721565b604082019050919050565b600060208201905081810360008301526107ac81610770565b9050919050565b7f5061757361626c653a20436f6e74726163742069732070617573656420616c7260008201527f656164792e000000000000000000000000000000000000000000000000000000602082015250565b600061080f6025836106a4565b915061081a826107b3565b604082019050919050565b6000602082019050818103600083015261083e81610802565b9050919050565b7f4f776e61626c653a206e6577206f776e657220697320746865207a65726f206160008201527f6464726573730000000000000000000000000000000000000000000000000000602082015250565b60006108a16026836106a4565b91506108ac82610845565b604082019050919050565b600060208201905081810360008301526108d081610894565b905091905056fea2646970667358221220d4d07cce3bc8380b35885dea4fdb9f7a2c1f88c06d6b268f4ee3b5f694e027e864736f6c634300080d0033",
  "immutableReferences": {},
  "source": "// SPDX-License-Identifier: MIT\npragma solidity ^0.8.0;\n\nimport \"@openzeppelin/contracts/access/Ownable.sol\";\n\ncontract Pausable is Ownable {\n\n    event Start(address by, uint indexed when);\n    event Stop(address by, uint indexed when);\n\n    bool private _paused;\n\n    modifier notPaused {\n        require(_paused == false, \"Pausable: Contract is paused.\");\n        _;\n    }\n\n    function isPaused() public view returns(bool) {\n        return _paused;\n    }\n\n    function pause() public onlyOwner {\n        require(_paused == false, \"Pausable: Contract is paused already.\");\n        _paused = true;\n        emit Stop(msg.sender, block.timestamp);\n    }\n\n    function unpause() public onlyOwner {\n        require(_paused == true, \"Pausable: Contract is unpaused already.\");\n        _paused = false;\n        emit Start(msg.sender, block.timestamp);\n    }\n\n}",
  "sourcePath": "/Users/matkuch/Code/erc20-crowdsale/contracts/Pausable.sol",
  "compiler": {
    "name": "solc",
    "version": "0.8.13+commit.abaa5c0e.Emscripten.clang"
  },
  "schemaVersion": "3.4.7",
  "updatedAt": "2022-04-28T09:21:04.116Z",
  "devdoc": {
    "kind": "dev",
    "methods": {
      "owner()": {
        "details": "Returns the address of the current owner."
      },
      "renounceOwnership()": {
        "details": "Leaves the contract without owner. It will not be possible to call `onlyOwner` functions anymore. Can only be called by the current owner. NOTE: Renouncing ownership will leave the contract without an owner, thereby removing any functionality that is only available to the owner."
      },
      "transferOwnership(address)": {
        "details": "Transfers ownership of the contract to a new account (`newOwner`). Can only be called by the current owner."
      }
    },
    "version": 1
  },
  "userdoc": {
    "kind": "user",
    "methods": {},
    "version": 1
  }
}